:020000041000EA
:1000000000B5324B212058609868022188439860DF
:10001000D860186158612E4B002199600221596106
:100020000121F02299502B49196001219960352056
:1000300000F044F80222904214D00621196600F024
:1000400034F8196E01211966002018661A6600F04E
:100050002CF8196E196E196E052000F02FF8012189
:100060000842F9D1002199601B49196000215960AB
:100070001A491B48016001219960EB211966A021F2
:10008000196600F012F800219960164914480160C1
:100090000121996001BC002800D000471248134993
:1000A000086003C880F30888084703B5996A0420EC
:1000B0000142FBD001200142F8D103BD02B5186610
:1000C0001866FFF7F2FF186E186E02BD00000240BE
:1000D000000000180000070000035F00212200005C
:1000E000F4000018222000A00001001008ED00E03C
:1000F00000000000000000000000000074B24E7A12
:1001000000200420F7010010C3010010C5010010F9
:10011000C1010010C1010010C1010010C101001097
:10012000C1010010C1010010C1010010C701001081
:10013000C1010010C1010010C9010010CB01001065
:10014000CD010010CD010010CD010010CD01001037
:10015000CD010010CD010010CD010010CD01001027
:10016000CD010010CD010010CD010010CD01001017
:10017000CD010010CD010010CD010010CD01001007
:10018000CD010010CD010010CD010010CD010010F7
:10019000CD010010CD010010CD010010CD010010E7
:1001A000CD010010CD010010CD010010CD010010D7
:1001B000CD010010CD010010CD010010CD010010C7
:1001C00000BE00BE00BE00BE00BE00BEEFF3058054
:1001D000103800BEF2EB88711085001034850010D5
:1001E0003402001090A31AE700201F49086006C8D7
:1001F00081F3088810471D48006800282FD10DA4FE
:100200000ECC002902D000F012F8F9E71849194A7B
:10021000002000E001C19142FCD1174988471749ED
:1002200088471749884700BEFDE701C901C29A42C5
:10023000FBD3704734850010C00000201403002059
:100240008887001000000420000004208887001028
:10025000001004200010042000000000704709482E
:1002600002F0B2FE0047000008ED00E0000000D000
:1002700018030020BC0A0220CD1C00103903001016
:100280008D1C00105756000006005250ABB360534F
:100290001472001006005250861C030224720010D3
:1002A000060052505422A29D407200100500525088
:1002B000DE65F46888870010F8B5C046064807492F
:1002C000091A8B10C90FC91810B5491003D0044B77
:1002D000002B00D0984710BD140300201403002009
:1002E00000000000054B10B5002B03D00449054861
:1002F00000E000BFFFF7E2FF10BDC04600000000B5
:10030000A0040020B867001070B5192000F042F872
:10031000D0231B06802292045A62D0242406802512
:10032000AD046561FA20C00005F0F6FCA56164200B
:1003300005F0F2FCF1E7000000B583B003F032FFF6
:1003400080220649064800230193013300930023CD
:10035000920005F0EBFA05F02FFBFEE7B8670010FE
:100360000903001010B58300084A944663441A68D4
:1003700040246240803414408022520113431C60A8
:10038000C000034B9C466044416010BD04C0014066
:100390000040014010B501238340D0221206936231
:1003A00093610521FFF7DEFF10BD0000034B1B68C2
:1003B00002201840431E9841C0B2704700C006405A
:1003C000EFF3108072B6034B1B68002BFBD0BFF31A
:1003D0005F8F70472C0100D0BFF35F8F024B00226C
:1003E0001A6080F3108870472C0100D0F8B5060021
:1003F0000C001500FFF7E4FFE308F718F15C072293
:100400002240012393400B4205D1DBB20B433B70EA
:10041000FFF7E2FFF8BD2100280001F0D3FC000047
:10042000002307E0054A9A189200BFF35F8F00216E
:10043000116001331F2BF5D97047C04640000034CE
:10044000054A1078431CDBB21370172B02D9130036
:1004500010221A707047C04630020020074B9B687C
:10046000103080001950BFF35F8FBFF35F8F044BD4
:100470000021196082F310887047C04600ED00E04B
:10048000240100D010B50388DA0A1C2A05D15B05C7
:100490005B1502335B00C01810BD034B034A0448D0
:1004A000B12101F0F7FBC046C4670010C07D001009
:1004B000DC67001010B5091A0B1F0A4A88180A4A8F
:1004C000904208D8C90706D45B105B055B0D07484E
:1004D000184380B210BD064B064A0748A32101F01D
:1004E000D9FBC046FC070000FE0F000000E0FFFF44
:1004F00038680010B47D0010DC67001010B5091AD0
:1005000004394A08090B08D14905490D064B0B432C
:100510000380064B1343438010BD054B054A064834
:10052000AB2101F0B7FBC04600F0FFFF00F8FFFF72
:1005300068680010887D0010DC670010012383408C
:10054000034A10681840431E9841C0B27047C04625
:1005500000E100E0002904D0034B1860034B186051
:100560007047034B1860FBE780E200E000E100E029
:1005700080E100E010B5012383401800FFF7EAFF97
:1005800010BD0000024B9B6810308000C0587047BF
:1005900000ED00E070B504000D00EFF3108672B6B8
:1005A0000C4B1B68002BFBD0BFF35F8F2000FFF7C5
:1005B000E9FF094B984201D0A84205D13200290039
:1005C0002000FFF74BFF70BD044B054A054886210C
:1005D00001F060FB240100D0CD010010786800100C
:1005E000D07D0010DC670010F0B5CE46474680B5E0
:1005F00083B006000D00EFF3108872B64F4B1B68F6
:10060000002BFBD0BFF35F8F4D4B9A683400103442
:10061000A300D7584B4B9F4207D0AF4200D18BE08D
:100620000197494BFB1A2F2B09D94246390030005C
:10063000FFF714FF03B0C0BCB946B046F0BD3000B0
:10064000FFF77CFF814600213000FFF793FFBFF3E7
:100650005F8FEFF30581002901D08C4211D1012376
:10066000019C9C430020A368AB4212D00622A256F4
:10067000002A0DDB53009B189B00334A2000D4183E
:10068000F1E7324B324A36213248FF3101F002FBAA
:100690002000AB4249D106256557002D2BDB2A4BA4
:1006A0006A00521992009B189A68A260DA79E27186
:1006B0009B795BB2A371002B0FDA2748A080224BF5
:1006C0006A00521992009B18244A1178997115708A
:1006D00049463000FFF74EFFA7E768004019800049
:1006E000194BC0180430FFF7CDFE0100231D180080
:1006F000FFF7E0FEE2E7002912D100280ED0FF2329
:100700008371174B838015490B78A3710E4A154BE3
:10071000A41A644163431B0D0B70D9E7094FF2E73C
:100720001149201DFFF7EAFED2E7104B084A6A2163
:100730000848FF3101F0AEFA024F76E7240100D0FD
:1007400000ED00E0CD01001034020020B068001080
:10075000A07D0010DC67001001BD0000B90A022076
:1007600001BDFFFFAAAA00006E020020E46800108D
:1007700010B5032304009C43064A9446644422684F
:100780001840C000FC3383409A43130081400B4360
:10079000236010BD00E400E070B5012202432E4B3F
:1007A000D31A2F2B28D8EFF30583002B2BD0EFF390
:1007B000108C72B6294909680029FBD0BFF35F8FFE
:1007C000254C274905002D1B6D416943090D4CB28D
:1007D000244989689B00C95891421BD000210329F4
:1007E00032D81D4B4A00521892009B189B795BB27D
:1007F000A3421FD00131F2E71B4B1C4AC7211C4802
:10080000490001F047FA1B4B184A92211848FF3162
:1008100001F040FA134A92681749D150174B1A78E1
:1008200082711C70BFF35F8F0C4B00221A608CF337
:10083000108870BD084B4A005518AD005D19FF26A1
:10084000AE710F4AAA80E9E70E4B084AD121084849
:10085000490001F01FFAC04634020020240100D0F4
:10086000AAAA000000ED00E0EC6800106C7D00100A
:10087000DC67001014690010CD010010B90A0220D5
:1008800001BDFFFF206900100022044B02E0044973
:1008900002C30132072AFAD97047C04600E400E0DB
:1008A00080808080024B9C466144890001607047D3
:1008B0004000003410B50400FFF7C2FD0100200025
:1008C000FFF7F0FF01235B426360BFF35F8F10BD52
:1008D00010B50400FFF7B4FD01002000FFF7E2FFB0
:1008E00001235B42636000232372BFF35F8F10BD5F
:1008F000084B5B6A994209D8064A926A824207D23B
:10090000994201D0012002E0002000E00020704761
:100910000120FCE70040054010B500290AD003681B
:100920001B7B8B4206D38068054B9C4661440901C2
:10093000401810BD034B044A04483C2101F0AAF9B9
:10094000FFFFFF0FD0690010E07E0010F469001077
:10095000F8B504001700FFF7DFFF066845683900A7
:100960002000FFF7D9FF026843680120AB4201D89D
:1009700002D00020C0B2F8BDB242FBD8F9E70000B7
:1009800010B5002B02DB0260436010BD024B034A2E
:1009900003483F2101F07EF9486A0010AC7E001048
:1009A000646A001010B582B004000498059912180A
:1009B0004B41002B09DB6846FFF7E2FF009A019BE1
:1009C00022606360200002B010BD01225242014B40
:1009D000F1E7C046FFFFFF7F10B5002908D0037B79
:1009E0008B4205D300684B005B18033BC01810BD59
:1009F000024B034A0348682101F04CF9C86A001011
:100A0000887E0010E46A001010B5437B8B4201D150
:100A1000012010BDFFF7E0FF8378002B01D10020FB
:100A2000F7E70120F5E770B50400857B002D01D1C3
:100A3000280070BD2900FFF7CFFF4378A373002B78
:100A400000D1E3730023837043700370F0E700006C
:100A5000F8B506000C001500FFF7BEFF0700002CDC
:100A60000DD0002D11D0AC4215D029003000FFF779
:100A7000B3FF84703B78002B13D13D70F8BD0A4B57
:100A80000A4A0B486F2101F005F90A4B074A08484A
:100A9000702101F0FFF8084B044A0548712101F06C
:100AA000F9F843703D70E9E74C6B0010647E00106C
:100AB000E46A0010586B0010646B001070B50600FB
:100AC0000D001400002914D0002A14D04368806857
:100AD0009847002806D0220029003000FFF7B8FF11
:100AE000280007E02A0021003000FFF7B1FF2000B6
:100AF00000E0100070BD0800FCE7000070B50400C5
:100B00000D1E0CD0FFF768FF002383704370037045
:100B1000617B2A002000FFF7D1FF607370BD034B9B
:100B2000034A0448A52101F0B5F8C0467C6B0010CB
:100B3000787E0010E46A001070B504000D1E0FD01E
:100B4000FFF762FF00280BD1E17B00290ED1A37BC8
:100B5000002B03D1E37B002B0DD1A573E57370BD92
:100B6000084B094A0948F62101F094F82000FFF7E4
:100B700033FF4570EBE7064B034A0448FB2101F0C5
:100B800089F8C046806B0010547E0010E46A0010A3
:100B9000A46B001010B5002907D003681B7B8B42A3
:100BA00003D3C0680139401810BD034B034A044801
:100BB000412101F06FF8C046D0690010407E00105E
:100BC000F469001070B505000C00080000F042FC4C
:100BD0000949200000F082FBFFF732FC074B9C46DE
:100BE0006044800068602C75D0231B061B786B75F1
:100BF000034BA400E55070BDBD0C00104000003454
:100C0000B804002010B582B0040000F029FB0200F7
:100C10000B006846FFF7B4FE009A019B22606360F8
:100C2000200002B010BD0000F0B583B007000192B3
:100C30001D000AAB1C780BAB1E78002C0BD0006893
:100C40002100FFF7E1FE002809D0194B194A1A4884
:100C5000672101F01FF80068FFF7E5FE0400002C93
:100C600002D1200003B0F0BD21003800FFF754FE90
:100C7000019B03604560089B8360099BC3603868E3
:100C80002100FFF73BFFA042EBD1387D019A2B00FA
:100C900000F06CFB051E01D0002E04D00C9B002B35
:100CA000DFD01D70DDE73868210000F019FDF5E7A1
:100CB000B86B0010947E0010F4690010F0B5DE46A9
:100CC00057464E464546E0B58FB00B900021794B14
:100CD0008200D458894683E029002000FFF71CFEDB
:100CE000804602684368921BBB41002B09DD4346E6
:100CF0001A685B680B9800F039FB002398460026C1
:100D00008AE0002B01D1002AF1D10021584600F0E1
:100D1000DDFC0700A84215D143461A685B680892BB
:100D2000099343469E68DB689846002E10D0290040
:100D30002000FFF72FFF037899461B021F4327610E
:100D4000002069E05C4B5D4A5D488E2100F0A2FF07
:100D50005C4B5A4A5A48922100F09CFF2369002BB1
:100D600000D177E0BB4219D106980799002342428F
:100D70008B4100920193089A099B0CA8FFF712FE81
:100D80000C9A0D9B0021049101310391029541467B
:100D9000019100962000FFF747FF16E04A4B474AB3
:100DA0004748A12100F076FF069A079B002B01D14E
:100DB000002A52D120682900FFF7BEFE290020003A
:100DC000FFF7E8FE037801330370002323616268B4
:100DD000BFF35F8F13608AF310880120002861D071
:100DE0000CA8FFF70FFF0C9E0D9F00220023089216
:100DF00009936268EFF3108A72B61368002BFCD077
:100E0000BFF35F8F23689B465D7B002D00D063E7B7
:100E100000239846002600206368BFF35F8F0022FE
:100E20001A608AF31088002ED8D04B461F022F4339
:100E300041463800B047069007916268EFF3108A88
:100E400072B61368002BFCD0BFF35F8F079B002B9B
:100E500000DA83E7079B002BA6DD2369002BA9D0CE
:100E6000BB4219D10CA8FFF7CDFE0C9A0D9B06983A
:100E70000799009001910CA8FFF794FD0C9A0D9B27
:100E800000210491013103910295414601910096A0
:100E90002000FFF7C9FE98E70B4B084A0848A42139
:100EA00000F0F8FE0FB0F0BCBB46B246A946A04623
:100EB000F0BDC046B8040020E06B0010C47E0010F6
:100EC000F4690010F86B0010046C001010B5084BAA
:100ED0001A68EFF3108172B61368002BFCD0BFF3D1
:100EE0005F8F034803F0FAFD0020002110BDC046CB
:100EF0006C09002010B50C4B5B68002B04D00B482C
:100F00000A21FFF7CFFC10BD074C094A20682300D7
:100F1000102100F046FB032000F096F90321200089
:100F2000FFF750FEEBE7C0467C0200206C09002072
:100F30005109001010B5064B5B68002B01D0044826
:100F400010BD044B044A05485E2100F0A3FEC046D4
:100F50007C020020406C0010287E0010F469001014
:100F6000F0B5DE4657464E464546E0B58DB0060024
:100F700090461F00169B9A46179B994618AB1B7804
:100F80000793272302AA9446634400221A7021E0A3
:100F900001003000FFF7FEFD00783CE00698002BD2
:100FA0005CD0079B002B59D04946D04704000D0068
:100FB00003000B4359D0002940DB08A8FFF722FEAD
:100FC000089A099B0094019508A8FFF7EBFC089B81
:100FD0009846099F7268EFF3108B72B613685942F6
:100FE0004B41D9B20691002BF8D1BFF35F8F273365
:100FF00002AA9446634404930023039302934B464E
:1010000001935346009342463B003000FFF70CFE2D
:101010000400051EBCD17368BFF35F8F0021196007
:101020008BF31088002D17D0272302AA944663441F
:101030001B78002BB2D100022043B0E700236242AC
:10104000AB410092019342463B0008A8FFF7AAFC7F
:10105000089B9846099FBDE7012040420DB0F0BCB7
:10106000BB46B246A946A046F0BD0698F6E7F0B5E5
:10107000C64600B584B00500884616001F000AABBE
:101080001C78FFF757FF0294019700962A00434609
:10109000FFF766FF04B080BCB846F0BDF0B5C646A9
:1010A00000B505000C1E42D04268EFF3108772B6FF
:1010B0001368002BFCD0BFF35F8FE6B22B68984615
:1010C00031001800FFF7A0FC00282AD02B69A342AA
:1010D00013D0240AE4B231002800FFF75BFD037847
:1010E000A34211D000206B68BFF35F8F00221A600B
:1010F00087F3108880BCB846F0BD0E4B0E4A2C21F9
:101100000E48FF3100F0C6FD3100404600F0E8FA1D
:101110000028E8D10A4B084A99210848490000F004
:10112000B9FD2B69A342DED100232B61DBE7002050
:10113000E0E7C046646C0010107E0010F4690010F7
:10114000886C001010B50400FFF7F4FE2100FFF7D3
:10115000A5FF10BD30B583B005000C00EFF305838B
:10116000002B0FD10B4A00230093FFF780FF0028CC
:101170000BDD20BFFFF7E6FF28002100FFF7B8FBDB
:1011800003B030BDFFF7B4FBFAE728002100FFF7FA
:10119000AFFBF5E7CD0E001010B5002B02DB0260AF
:1011A000436010BD024B034A03483F2100F072FD2B
:1011B000486A0010087F0010646A001070B5EFF3F1
:1011C00005801038EFF3108C72B6194B1B68002B9A
:1011D000FBD0BFF35F8F01221300834015494B639F
:1011E00015490B60154909780C00C440224213D000
:1011F000104A546A124A8500AA58944205D3114AEB
:10120000AA580E4C9943217007E00A4A031D9B001F
:1012100099589950002200E00022BFF35F8F044BE1
:10122000002119608CF31088002A00D0904770BD0F
:10123000280100D0004005403C700540BA0A022059
:10124000700900201804002010B50100024A034B69
:101250001800FFF7CBF810BD8C6C0010B80A022004
:10126000044B5B6A034A906A1900536A9942F9D1A8
:101270007047C04600400540084B5B6A01E0074BE1
:101280005B6A8B42FBD301E0044B5B6A8B4203D168
:10129000024B9B6A8342F7D37047C046004005402B
:1012A000F0B583B004000D00FFF7DAFF06000F0071
:1012B00022002B0092197B41994202D804D190421E
:1012C00002D901225242D3176846FFF765FF009802
:1012D0000199FFF7D1FF03B0F0BD000070B5040025
:1012E0000E00EFF3108572B61B4B1B68002BFBD072
:1012F000BFF35F8F002E1CD02000FFF743F9174B80
:1013000083420BD019002000FFF744F9012120008F
:10131000FFF730F90123A340114A1360114BA400D9
:10132000E650BFF35F8F0C4B00221A6085F31088E4
:1013300070BD0C4BA2000021D1500122A2400A49ED
:101340000B7893430B7005492000FFF74DF90021FE
:101350002000FFF70FF9E4E7280100D0BD110010CD
:101360003860054018040020BA0A0220F0B5DE46B5
:1013700000B584B00400150001921E000293FFF72F
:101380006FFF03958E4202D84ED185424CD9EFF3C0
:10139000108B72B6274B1B68002BFBD0BFF35F8FFF
:1013A000254A17780125A540EBB23B431370234B28
:1013B0005D63221D92000199D150214AA10002983B
:1013C00088501B6A2B4212D11C4B1B6C2B4208D03D
:1013D0000020BFF35F8F174B00221A608BF3108839
:1013E00023E0184B184A1948C52100F053FCFFF7B9
:1013F00037FF8E4214D802D1039B834210D80E4B84
:101400001B78BB420ED00D4B1D625D631F22224034
:10141000012393400E4A1360074B1F700120D8E749
:101420000020D6E70120D4E7012004B080BCBB46F1
:10143000F0BDC046280100D0BA0A02200040054095
:1014400070090020B06C0010EC7E0010D46C00100D
:1014500080E200E0EFF3108C72B60B4B1B68002BA0
:10146000FBD0BFF35F8F01238340084A1362084912
:101470000A789A430A70BFF35F8F034B00221A6009
:101480008CF310887047C046280100D0004005400A
:10149000BA0A022010B5002908D0037B8B4205D37D
:1014A00000684B005B18033BC01810BD024B034A99
:1014B0000348682100F0EEFBC86A0010607F00104E
:1014C000E46A0010F8B506000C001500FFF7E2FF13
:1014D0000700002C0DD0002D11D0AC4215D02900F2
:1014E0003000FFF7D7FF84703B78002B13D13D709D
:1014F000F8BD0A4B0A4A0B486F2100F0CBFB0A4BA0
:10150000074A0848702100F0C5FB084B044A05480B
:10151000712100F0BFFB43703D70E9E74C6B001098
:101520004C7F0010E46A0010586B0010646B0010D0
:1015300070B506000D001400002914D0002A14D044
:10154000436880689847002806D0220029003000B0
:10155000FFF7B8FF280007E02A0021003000FFF75E
:10156000B1FF200000E0100070BD0800FCE770B57E
:1015700005000023437301338373037BC37301248A
:1015800006E021002800FFF785FF0134E4B2447033
:10159000297BA142F5D82800FFF77CFF0023437088
:1015A00070BD10B5017342608360FFF7E0FF10BDAE
:1015B000F0B5C64600B505000C1E03D1200080BC66
:1015C000B846F0BDFFF766FF4678002EF6D0310032
:1015D0002800FFF75FFF47780023984643702100FB
:1015E0002800FFF757FF43464370320021002800D0
:1015F000FFF79EFF040039002800FFF7D9FF020023
:1016000021002800FFF794FF0400D7E7F0B5C64695
:1016100000B504000D001700002927D0FFF73AFF9E
:101620004378002B28D18378002B2BD10178200020
:10163000FFF7BEFF06008046002F0AD0E17B00299D
:1016400026D1A37B002B03D1E37B002B25D1A573EF
:10165000E5734346002B26D129002000FFF71AFF2F
:1016600000234370300080BCB846F0BD114B124AD5
:101670001248382100F00EFB114B0F4A0F483A2157
:1016800000F008FB0F4B0C4A0C483B2100F002FB1A
:101690002000FFF7FFFE4570D3E70B4B064A0748D3
:1016A000422100F0F7FA31002000FFF7F3FE00239B
:1016B0008370D1E7346D0010387F00103C6D00104E
:1016C000906D0010B86D0010A46B001070B5040090
:1016D0000A00457B2900FFF799FF6073280070BD61
:1016E00070B506000C1E40D0437B8B4207D0FFF73D
:1016F000D1FE05008178002906D1002036E00121C5
:10170000FFF7E4FF012031E03000FFF7C3FE01786E
:10171000A1420DD03000FFF7BDFE4178A1420AD0B2
:101720000029F7D1124B134A13486B3100F0B2FA7B
:101730006B78037001E06B7843700023AB706B70C3
:10174000012221003000FFF761FF0200717B81421E
:1017500005D03000FFF7ECFE7073012006E0074B68
:10176000044A0548712100F095FA002070BDC0467A
:1017700020690010207F00103C6D0010DC6D00100F
:1017800070B5046BE30701D4200070BD0200303255
:10179000C0239B0113430A4A1A60456A836AAD015C
:1017A000ED18AD02062000F0BDF9064901F060FC1D
:1017B0000100280001F05CFC0021FFF771FDE3E768
:1017C000010300004E0E000070B504000E0015006D
:1017D000FFF7D6FF22002C32E36A5E4035408023BB
:1017E0005B0113431D60206370BD000070B50500F0
:1017F0000C00062000F096F9C000210001F038FC32
:10180000C60908D00E4B9E4216D87F2303400133F1
:1018100034005E0800E001246C62AE620022002108
:101820002800FFF7D1FF062000F07CF98000A1011D
:10183000891901F01DFC70BD0026024CECE7C04682
:10184000FEFF0000FFFF000010B505394901013A15
:10185000D2001143002B09D002220A43012B07D0EA
:10186000002111436E22FFF7AFFF10BD0022F4E705
:101870000421F6E7002909D00A22064B9C46604461
:1018800043425841044B4000C252704780225200EC
:10189000F3E7C0460080FCBF8009002070B505005A
:1018A0000C00062000F03EF9061E27D0164B9D4284
:1018B00026D08022D203154B1A60154B1A60154BA7
:1018C0009B6811009943FAD100212800FFF7D2FF4D
:1018D00021002800FFF78AFF0600002301220821CB
:1018E0002800FFF7B1FF2A002C3280239B0113430D
:1018F00010221A60084B2B630323AB64300070BDC9
:1019000080221204D7E7C0460080034000E0004078
:1019100000F0004000C0004001030000F8B5DE46C2
:1019200057464E464546E0B506000F0015000A9A98
:10193000934250D31A0E92461B0298460A9A0023ED
:101940004046514601F0D2FB81467400A419A40020
:101950002F4B9C4664446368834200D26060331F0F
:10196000DBB29B46012B3CD9C0239B012343802241
:1019700012011A60274BB200D158002907D05869CC
:1019800001F076FB013043001B18033BFDD26D01D3
:1019900023685D40E0222A4080235B0123431A60D4
:1019A0005A46012A28D980239B0123438022120111
:1019B0001A604B4663604A4600234046514601F098
:1019C00095FB144BB60098510120F0BCBB46B246C3
:1019D000A946A046F8BD104B104A1148332100F02B
:1019E00059F9012FC0D1C0239B01234303221A6060
:1019F000A368DB07FCD5CAE72168794003220A40C7
:101A00001A60A3680125BD401D42FAD0CBE7C0464D
:101A10000080004030040020FC6D00106C7F00103E
:101A2000106E001030B583B00C2000F011F9FEF7F5
:101A3000BDFC00280DD0002304E02E4A99002E485A
:101A400088500133092BF8D92A4B2C4A5A6203B02B
:101A500030BD2B4B00229A6700F002F9294B01227E
:101A60001A60274B5B6C012BFBD1274B03221A60BA
:101A7000234B9B6B012BFBD1013300930433234A8F
:101A80000121234800F054F805230093214A012145
:101A9000214800F04DF8214B009300220221042040
:101AA000FFF73CFF1E4D00952B0000220121052071
:101AB000FFF734FF104C0094230000220021072080
:101AC000FFF72CFF00942300002200210820FFF7DD
:101AD00025FF0A4B00932300002200210920FFF775
:101AE0001DFF00952B00002200210620FFF716FFA6
:101AF000ADE7C04630040020006CDC021BB70000DC
:101B0000008000403CB0004030B00040002F6859D9
:101B100000800240008C864700C00240001BB700D6
:101B200040597307014B8000C058704730040020B3
:101B3000F0B5C64600B504000E0017001D0037487A
:101B400001F096FA8046364BFA18364B9A4239D84D
:101B50000100380001F08CFA0200103A98235B0073
:101B60009A4235D86B1E062B38D8069B013B062BB4
:101B700034D83F09474537D32D04069B1B031D432B
:101B80002368002B36DB284B9C4244D080235B012A
:101B9000264A1360264A1360264A92681900914328
:101BA000FAD12660A060221DC0239B01134321228D
:101BB0001A602268002AFCDAE56008221A6080BCFC
:101BC000B846F0BD1C4B1D4A1D48112100F062F8BB
:101BD0001C4B1A4A1A48192100F05CF81A4B174A94
:101BE00017481C2100F056F8184B144A14482321BA
:101BF00000F050F822683F231340B342C3D1A368DA
:101C00001B051B0D8342BED1E368EE22D2021340B6
:101C1000AB42B8D1D3E780239B01B9E7001BB700E3
:101C200080E84BD380F8A93200C0024000E00040B9
:101C300000F0004000C00040706E00107C7F00107B
:101C4000D06E00102C6F0010486F0010946F0010C1
:101C500080239B000343014AD36270470080054004
:101C6000064BAA2212011A602F22DA60044B054AA1
:101C70001A60024B5B68002BFBDA704700400240A1
:101C80000060024000B0FA0000BEFDE710B5FFF7AB
:101C9000FBFF000030B583B00D001900002A0BD007
:101CA000074B084C019200932B000200200002F029
:101CB0006DFA0120FFF7E8FF034B1A00F1E7C04679
:101CC000B06F0010C06F0010BC6F001070B52B4BD0
:101CD0002B4A1A602B4B2C4A1A602C4B9A682A4BC1
:101CE0009343FAD12A4C01E008CC9847294B9C42F7
:101CF000FAD3FFF797FE234B274A1A60234B9B68C2
:101D0000DB43DB01FAD1254B40229A675A671A67F9
:101D1000DA66234C09E0234B234A24488721FFF746
:101D2000B9FF2000FEF7C6FD0834214B9C4209D2C2
:101D30002368002BF5D0012BEDD12000FEF7C8FD64
:101D40000C34F2E71B4DA9681B4CC022200002F0A6
:101D50008DF8AC60EFF30583002B00D000BEFEF7DA
:101D60005FFBFEF791FDFFF7C5F8144C01E008CCCE
:101D70009847134B9C42FAD370BDC04600E0004028
:101D8000BFCDFBFE00F00040FE7F3C0000C00040E5
:101D9000FC0200200C030020FFFFFF0100F00140C7
:101DA000EC020020F06F0010887F0010107000100F
:101DB000FC02002000ED00E0000000200C030020E9
:101DC000140300200FB400B583B0084802F0AEF948
:101DD000049B002B07D005A90191180002F0B6F969
:101DE000034802F0A3F90120FFF74EFF70700010C6
:101DF0008070001010B50148FFF7E4FF84700010F8
:101E0000704710B5002802D00B684968984710BD8C
:101E10000100002007E083001B185B00501C0860D5
:101E20001078C01830380A681378303BDBB2092BC1
:101E3000F1D97047F0B5DE4657464E464546E0B507
:101E400083B093461F000C9B9A460D9C0E9B9946AF
:101E50000F9B9B0703D0B8460F00060022E00192BB
:101E6000A34688464E46B9460700B44207D2551CE1
:101E70004B4641462020B84701342A00F5E73D0093
:101E80004F465C46019B9B46B1464646B8463700E6
:101E90002E0007E0013C551C5346185D43463900AF
:101EA000B0472A00002CF5D135003E0047460F9B75
:101EB0009B0707D4100003B0F0BCBB46B246A9464E
:101EC000A046F0BDB0464E46B9462F005D46531BB6
:101ED000B342EFD2541C4B4641462020B847220063
:101EE000F5E7F0B5CE46474680B585B094469846AE
:101EF0000C9D0D9C0EAB1B789946109A119B129E5F
:101F0000B7071CD4002B0CD0F7070AD54F46002F7B
:101F100002D10C37374204D0013B02E030272F5565
:101F20000134944201D21F2CF8D9F70707D59C42FF
:101F300005D21F2C03D830272F550134F5E7F706BB
:101F400012D5770505D4002C03D0944221D09C42B1
:101F50001FD00F9A102A32D00F9A022A37D01F2C86
:101F60000AD830222A5501341F2C05D84A46002AA7
:101F700033D02D222A550134039602930194009503
:101F800043466246FFF756FF05B0C0BCB946B046AF
:101F9000F0BD621E012C10D00F9F102F0BD014002B
:101FA0000F9A102AD8D1B206D6D51F2CD4D85822D1
:101FB0002A550134D3E7023CCBE71400C9E7B20647
:101FC000EED41F2CECD878222A550134C7E71F2CF9
:101FD000D2D860322A550134C1E7720703D52B22CB
:101FE0002A550134C8E73207C6D520222A550134C4
:101FF000C2E7F0B5DE4657464E464546E0B593B0DB
:1020000081468A46089209931CAB10CB1B789B46ED
:102010001E9D219B9846002C03D1102342469A43D3
:1020200090468023DB0046461E4042461A4212D0AC
:10203000002C22D000260EE03033D9B2771C0AAB38
:1020400099552900200001F013F8AC4216D31F2F38
:1020500014D83E0004002900200001F009F8CBB29A
:10206000092BE9D94246920605D54121C918C9B2C2
:102070000A39C9B2E2E76121F8E72700434606932F
:10208000209B05931F9B049303955B460293019746
:102090000AAB0093099B089A51464846FFF721FF77
:1020A00013B0F0BCBB46B246A946A046F0BDF0B5A1
:1020B000DE4657464E464546E0B597B00A900B912E
:1020C0000C929A46209B9946219F22AA13789B4600
:1020D000249B0993259C289B98464A463A4302D163
:1020E0001032934398468022D2004546154043461D
:1020F00013420AD04A463A4341D000252E005346A7
:102100000D934D46099B9A461BE02E0053460D93B6
:102110004D46099B9A4614E03033DAB2731C994657
:102120000EAB9A55524623002800390000F0DEFF1E
:10213000BC4226D819D04B461F2B1CD84E46050052
:102140000F00524623002800390000F0CFFFD3B221
:10215000092BE1D94246920605D54122D218D2B2C6
:102160000A3AD2B2DAE76122F8E7AA45E3D94E4645
:102170000D9B9A4608E04E460D9B9A4604E00026C9
:1021800002E04E460D9B9A4643460693279B0593D5
:10219000269B0493099B03935B46029301960EAB27
:1021A000009353460C9A0B990A98FFF79AFE17B0C2
:1021B000F0BCBB46B246A946A046F0BDF0B5DE462F
:1021C00057464E464546E0B591B0804689460C924A
:1021D0009A461A9C1B9D22002B002000290001F02A
:1021E00010FA002800D0ECE001225242D44B20002B
:1021F000290001F001FA002800D0E2E00122524259
:10220000D04B2000290001F0E1F9002800D0D8E0EF
:10221000002200232000290001F0D8F9002800D076
:10222000E4E0069407958023DB001E9A1A400D9285
:102230001E9A1A4201D106231C93069807990200A0
:102240000B000892099303000A00024300D1D9E071
:10225000080D4005400DBC4EB44660440A03120B05
:102260001E00BA4B13431F0001F0DEF9B84AB94B08
:1022700001F069F9B84AB94B01F03EF908900991AB
:102280000022B74B3000390001F02DF9B54AB64BAA
:1022900001F059F902000B000898099901F02CF996
:1022A00001F0DAF9834601F0BFF906000F00AF4AEA
:1022B000AF4B01F048F90022AE4B01F01DF901F0DF
:1022C000CBF90890AC4AAD4B3000390001F03BF936
:1022D00006000F00089801F0A7F9A94AA94B01F0E0
:1022E00032F902000B003000390001F0FCF8060062
:1022F0000F0002000B0001F026F90A900B91089BD9
:10230000A14A9446634400210022089109921B05CA
:1023100009930023089332003B003000390001F09C
:10232000EBF80E900F9132003B0000208021C90590
:1023300001F0D9F806000F000022944B0A980B997F
:1023400001F0E3F80022924B01F0D6F802000B00F6
:102350000A980B9901F0D9F800228E4B01F0CCF8C5
:1023600002000B000A980B9901F0CFF802000B0055
:102370003000390001F0C0F802000B000E980F99F0
:1023800001F0C3F80022714B01F0B6F8089A099BDE
:1023900001F0D9F806000F0008960997069A079BE6
:1023A00001F02AF900282FD001235B429C46E34428
:1023B0000022774B3000390001F0A7F8089009910E
:1023C00022E01E9B04931D9B03931C9B029300948D
:1023D000019553460C9A4946404600F0FFF811B06B
:1023E000F0BCBB46B246A946A046F0BD0021002283
:1023F00006910792069480231B069C46AC446346D4
:10240000079310E700239B465B466333C62B20D817
:1024100004261E9B1B0528D5089A099B1900114309
:102420000FD05D4A5D4B0698079901F0DDF8002852
:102430007AD000225A4B0698079901F0C7F8002875
:1024400072D01C9B5B4506DD5A469B1A013B1C93D0
:1024500003E00526DDE700231C938023DB001E9AA2
:102460001A431E92002600239B461D9B9E4265D266
:102470009F1B02231E9A1A400A921E9A134202D0F0
:10248000002E00D000275B46002B07D0089A099B3E
:102490000698079901F039F8069007910022002369
:1024A0002000290001F092F8002800D07CE03D4B8C
:1024B0001E9A1340049303971C9B0293069B079C50
:1024C0000093019453460C9A4946404600F086F822
:1024D000002E00D183E71E9B9B0671D54525441C29
:1024E0005346020049462800C0475A46D317D2181F
:1024F0005A4005230593013E0496002303930A33B3
:1025000002935B46DB0F019300925346220049463B
:102510004046FFF76EFD0A9B002B00D15FE70200EB
:1025200047460C9E1D9D53E01C9B002B9DD00D9B90
:10253000002B9AD01C9B013B1C9396E7002798E741
:10254000FFFFEF7FFFFFEFFF01FCFFFF0000F03F09
:10255000FB799F501344D33FB3C8608B288AC63F92
:102560000000F83F61436F63A787D23F71A37909E9
:102570004F930A400000E03F1655B5BBB16B0240D7
:10258000EF39FAFE422EE63FFF03000000002C4028
:1025900000002440000018402D431CEBE2361A3F97
:1025A00080842E41FFF7FFFF069C079D2200290033
:1025B00080200006844661440B000692079376E76C
:1025C00065258CE7541C534649462020B847220015
:1025D000931BAB42F6D3100001E7C046F0B5DE46D0
:1025E00057464E464546E0B595B00690079193464E
:1025F0009946209F1E9A1F9B1000190001F001F8B8
:10260000002831D101225242BF4B1E981F9900F081
:10261000DDFF002837D101225242BC4B1E981F9982
:1026200000F0EAFF00283DD10022B94B1E981F9907
:1026300000F0E2FF002850D10022B64B1E981F99EF
:1026400000F0C4FF002848D1002200231E981F99E3
:1026500000F0BCFF002850D100239846229B5B0568
:1026600000D4B6E0002458E0229B0393219B029300
:1026700003230193A84B00934B465A4607990698AB
:10268000FFF7D8FB0EE1229B0393219B02930423C7
:102690000193A24B00934B465A4607990698FFF7C1
:1026A000C9FBFFE00423229A1A4022990B4210D062
:1026B0009B4B002A0FD00422229903912199029169
:1026C000019200934B465A4607990698FFF7B2FBD2
:1026D000E8E0944BEDE70322EEE7229B0493219B75
:1026E000039302971E9B1F9C009301944B465A46EE
:1026F00007990698FFF762FDD4E01E9A1F9B002001
:10270000002100F0F0FE1E901F9101239846A5E7DE
:102710000CAB30221A55013F01341F2C01D8092F70
:10272000F6D81E981F9900F097FF050000F07CFF77
:1027300002000B001E981F9900F0D5FE7A4BFA009C
:102740009B181A685B680A920B9300F0FCFE0890D5
:10275000099100F0A5FF060000F062FF02000B00E7
:102760000898099900F0BFFE0890099100226F4B6C
:1027700000F042FF00282ED00136300000F050FF5C
:1027800002000B000A980B9900F026FF002801D0E8
:1027900001350026002F2CD1280000F045FF020053
:1027A0000B001E981F9900F09EFE06000F000022ED
:1027B0005E4B00F00BFF002846D100225B4B30003F
:1027C000390000F019FF00283ED1EB073CD5013558
:1027D0003AE0062746E70022544B0898099900F092
:1027E000F5FE0028D6D1002E01D0F307D2D5013650
:1027F000D0E7AA461F2C11D8013F0A21300000F073
:1028000037FC651C30310CAB19550A21300000F043
:102810002FFC092E0ED906002C00EBE755461F2C85
:102820000CD87B1E002F09D00CAA302111551F0097
:102830000134F4E72B0055461C00F0E71F2C03D8A9
:102840000CAB2E221A5501341F2C10D80A21280057
:1028500000F0E6FB661C30310CAB19550A2128004C
:1028600000F0DEFB051E01D03400EDE73400032349
:10287000229A1340012B1CD01F2C06D84346002B54
:1028800032D00CAB2D221A550134229B0393219B8D
:10289000029301940CAB00934B465A460799069855
:1028A000FFF7C8FA15B0F0BCBB46B246A946A04631
:1028B000F0BD219B002B13D04346002B02D10C33DB
:1028C00013420FD0219B013B2193190003E00CAB75
:1028D00030221A5501348C42CED21F2CF7D9CBE7C7
:1028E0002199F8E72199F6E7229B5B0704D50CAB09
:1028F0002B221A550134C8E7229B1B07C5D50CAB08
:1029000020221A550134C0E7FFFFEFFFFFFFEF7FE2
:1029100065CDCD4165CDCDC1A0700010A470001073
:10292000947000109C700010388100100000E03F8F
:10293000F0B5DE4657464E464546E0B593B0824672
:10294000884693461193002900D10DE30025564691
:10295000119B1878002800D109E3252809D06C1CA8
:102960005B462A004146B047119B01331193250075
:10297000EEE701331193002720E001231F430132CA
:102980001192012418E002231F4301321192012405
:1029900012E004231F430132119201240CE00823AA
:1029A0001F4301321192012406E010231F4301321C
:1029B0001192012400E00024002C09D0119A137810
:1029C000203BD9B21029F6D88B00C849CB589F4676
:1029D000119B1A781300303BDBB2092B10D92A2A3D
:1029E00013D00B94119B1A782E2A1ED0119A1378AB
:1029F000683BD9B2122959D88B00BD49CB589F46A4
:102A000011A8FFF705FA0B90ECE71C9B1A1D1C920E
:102A10001B68002B04DB0B93119B01331193E1E73F
:102A2000022217435B420B93F6E78022D200174342
:102A30005A1C11925A781300303BDBB2092B0BD988
:102A40002A2AD3D11C9B1A1D1C921C68002C08DB5F
:102A5000119B01331193C9E711A8FFF7D9F90400BD
:102A6000C4E70024F4E780235B003B43511C119131
:102A700051786C2901D01F0018E0C0239B001F4330
:102A80000232119212E080233B43511C1191517884
:102A9000682901D01F0009E0C0231F4302321192B0
:102AA00004E080235B001F4301321192119B1878D0
:102AB000672818D8252800D24CE20300253BDAB25B
:102AC000422A00D946E293008A4AD3589F4680237F
:102AD0009B001F4301321192E8E780235B001F43F4
:102AE00001321192E2E7782800D933E2692800D256
:102AF00030E20200693AD2B2012393407E4A134287
:102B000011D11A0600D500E25B0500D422E21C9B1D
:102B10001A1D1C921B689A46002C00D0B2E10122BB
:102B2000524253468EE16F280ED006D858283DD029
:102B3000622804D102239C4608E0782839D010236B
:102B40009F43063B9C4601E008239C46582833D00F
:102B5000692803D0642801D00C2297437A0501D557
:102B60000122974369282AD0642828D0BA0500D5C5
:102B70009FE0FA0500D5C1E07A0600D4D3E01C9AA4
:102B8000111D1C911168FF220A4005970B9B0493AD
:102B90000394634602930023019300925B462A004C
:102BA00041463000FFF725FA050027E010239C4638
:102BB000CCE710239C46C9E720221743C8E7BA0593
:102BC00020D4FA0550D47A0666D51C9A111D1C91A2
:102BD0001168FF220A40D0171118414005970B9B3E
:102BE0000493039463460293D20F019200915B46D3
:102BF0002A0041463000FFF7FCF90500119B013324
:102C00001193A5E61C9A073207218A431100083167
:102C10001C91116853689946DB170C930D930C9A1D
:102C20000D9B100048400E904A4653400F930E985B
:102C30000F990C9A0D9B801A99410E900F9108974D
:102C40000B9B0793069463460493002305934B461E
:102C5000DA0F0292009001915B462A004146300053
:102C6000FFF725FA0500C9E71C9A111D1C9112688F
:102C7000D0171118414005970B9B049303946346AA
:102C80000293D20F019200915B462A004146300028
:102C9000FFF7AFF90500B1E73A0605D51C9A111DFB
:102CA0001C910023D25E96E71C9A111D1C9112689C
:102CB00091E71C9A073207218A43110008311C91C1
:102CC00008970B9B07930694634604930023059390
:102CD000029353681268009201935B462A004146B2
:102CE0003000FFF7E4F9050088E7C046987F001040
:102CF000DC7F001028800010419000001C9A111DFC
:102D00001C9105970B9B0493039463460293002345
:102D10000193136800935B462A0041463000FFF799
:102D200068F905006AE73A0606D51C9A111D1C9140
:102D300012681204120C28E71C9A111D1C911268CB
:102D400023E7462819D01C9B0733072293431A0018
:102D500008321C9204970B9A039202941A685B68DB
:102D6000009201935B462A0041463000FFF736FC93
:102D70000500119B01331193EAE520231F43E2E78D
:102D8000672801D0472802D180231B011F43452813
:102D900001D0472801D120231F431C9B0733072262
:102DA00093431A0008321C9204970B9A03920294E0
:102DB0001A685B68009201935B462A004146300026
:102DC000FFF7FCF90500119B01331193C0E50223C5
:102DD0001A003A4091463B421DD001241C9B1A1D0B
:102DE0001C926F1C18785B462A004146B0474B4640
:102DF000002B14D1119B013311933D00A8E5571C02
:102E00005B4641462020B04723003A005C1C9D42AF
:102E1000F5D81500E2E701232A000B9DF6E73A00FA
:102E2000B1460B9E06E0571C5B4641462020C84732
:102E30002C003A00651CA642F5D817004E46D9E78B
:102E400001330A001978002902D0511E002AF7D157
:102E500052469B1A8022D2003900114089461742FF
:102E600002D0A34200D92300022211003940109160
:102E70003A4209D02A00250057469A4633004E466A
:102E8000994621E022004CE62A004546A04606E08D
:102E9000541C5B4629002020B0473B0022005F1CE9
:102EA0000B999942F4D84446A8463B002500574662
:102EB0009A4633004E46994606E01D000137541CE1
:102EC0005B464146C84722003878002804D0002ECF
:102ED000F4D06B1E002DF0D1150053464E46109ACB
:102EE000002A03D1119B0133119331E50B9F2A0076
:102EF00006E0551C5B4641462020B04723002A00CF
:102F00005C1C9F42F5D81500ECE721233B431C9A3B
:102F1000111D1C9112680593082304930394083330
:102F200002930023019300925B462A004146300041
:102F3000FFF75FF80500119B0133119308E56C1C46
:102F40005B462A0041462520B047119B013311936F
:102F50002500FDE46C1C5B462A004146B047119BEE
:102F6000013311932500F3E40A4B9A46EEE4B2468E
:102F70005D450DD35B465A1E5B4641460020D04757
:102F8000280013B0F0BCBB46B246A946A046F0BD2F
:102F90002A00F1E7011E001000B585B002900391F0
:102FA00001210448009313004A4202A9FFF7C0FC24
:102FB00005B000BD031E001001480421014B184755
:102FC000B0020020E92F001010B5010018231B8863
:102FD00014221088984710BD10B5010018231B88D3
:102FE00016221088984710BDF0B5C64600B50700F8
:102FF0000E0000250123984600E00135B5420AD2B3
:10300000AC003C192068FFF7DFFF20600028F4D1F6
:1030100000239846F1E7404680BCB846F0BD00006A
:10302000124A936F9B0815D29066D166002905D08D
:10303000FFE7FFE7FFE7516F106F704704B580218E
:103040000906C2175140002800D0C84303F0A4FB72
:10305000002104BDF0B5146E556E576F166FFFF763
:10306000E3FF1466556657671667F0BD000000D091
:10307000114A936F9B0813D210665166002905D040
:10308000FFE7FFE7FFE7516F106F704704B50028B7
:1030900001D00020C04303F07FFB002104BDC046E7
:1030A000F0B5146E556E576F166FFFF7E5FF146697
:1030B000556657671667F0BD000000D094464A4A2F
:1030C000926F9208624601D228E0C046F0B5464EA3
:1030D000346E756E776F366F00F020F89446424A72
:1030E00014665566576716676246F0BD94463E4AB9
:1030F000926F9208624601D254E0C046F0B53A4E53
:10310000346E756E776F366F00F04CF89446364A21
:1031100014665566576716676246F0BD002B24DBC0
:1031200011D000293EDA00B5C943404200D1013137
:1031300000F038F8C943404200D10131DB4352422C
:1031400000D1013300BD002AEBD1002801D10029B4
:1031500005D00020C90FC90701D1C043410800B5FF
:1031600003F012FB0022002300BD00B500290ADB9A
:10317000DB43524200D1013300F014F8C94340420E
:1031800000D1013100BDC943404200D10131DB43D0
:10319000524200D1013300F005F8DB43524200D126
:1031A000013300BD002923D1002B18D1002A0CD0F7
:1031B000BC460D4F38667A6600210023FFE7FFE723
:1031C000FFE77A6F386F67467047002801D00748DD
:1031D000010000B503F0D8FA0022002300BD020070
:1031E0000B00002000217047000000D0FFFFFFFF10
:1031F000002B00D0BFE0130C28D1002AE7D080B408
:10320000114F39667A66FFE7FFE730B4040C7B6F35
:10321000396F1B0423433B667A66FFE7FFE7FFE74E
:10322000C04684B27B6F3D6F1B0423433B667A66C6
:10323000FFE7FFE7C04600232C042D0C7A6F386FA0
:1032400000196941B0BC7047000000D0F0B5944649
:103250000025140E01D112020835140F01D11201FC
:103260000435940F01D192000235D40F01D15200E0
:103270000135D40B0134254F7C66254C3C660E0C81
:1032800093B2FFE7FFE7FFE73C6F6643360C770337
:10329000BE467343DF0B5B04C01AB941130C734382
:1032A000DB18C91ACE086643360CB64493B2734392
:1032B0001F0F1B01C01AB941130C73431F0B1B05D1
:1032C000C01AB941860D8F023E436643360C092D64
:1032D00024DB520A7243801A7703460A6643360C8F
:1032E00016235B1BDE40DF40BF1964466643821B2A
:1032F0007046043506330100D940A840C01900D3F8
:103300000131A24206D20023F0BD0000000000D02F
:10331000FFFFFFFF121B0130F3D3F1E709277F1BEB
:10332000FE406446A2B27243801A00D20139220CD8
:103330007243130C1204821A99410B007046043533
:1033400013370100F940A840801900D30131002B48
:1033500002D1A2420AD2F0BD013000D30131121BCA
:10336000FAD2013BF8D1A24200D2F0BD013000D325
:103370000131121BF7E7F0B51C0C00D080E00CB453
:1033800000251C0A04D11B02160E33431202083515
:103390001C0B04D11B01160F3343120104359C0B87
:1033A00004D19B00960F334392000235DC0B02D10F
:1033B00092185B4101351C00971864410134464F57
:1033C0007C66464C3C660E0CFFE7FFE7FFE7C04615
:1033D0003C6F6643360C7703BE4697B27743C01BFB
:1033E00000D20139C01B00D201399FB27743C91BFB
:1033F000C91B170C77437E04FF0B801BB941CE0815
:103400006643360C0C2D33DBB644120B1F053A43D2
:103410001B0B97B27743C01B00D201399FB2774391
:10342000C91B170C77433E043F0C801BB941860D26
:103430008F023E43664329277F1BFE400C3D7746A3
:10344000AF40BF1930BCA2B2ABB272437343801A13
:103450009941220C7243130C1204801A9941020004
:103460000B000137001BA941F9D2781E0021F0BDE5
:103470000C277F1BFE4077467F0BAF40FF19E0E72C
:1034800000245D1C07D0144F7D663966FFE7FFE717
:10349000FFE7FFE73C6F95B29EB265436643401B72
:1034A000B141150C1E0C6543664336042F0C3E4398
:1034B0002D04401BB141994204D202000B002000B0
:1034C0000021F0BD01D19042F7D3801A9941013417
:1034D0009942F2D3F6E70000000000D0FFFFFFFFA3
:1034E00048404140484018B41B4B5B68FC46019380
:1034F00008BD04DFBF37001018B4174B1B68FC462B
:10350000019308BD00DFC93700109446134A926F3B
:10351000920809D2624618B40F4BDB68FC4601934F
:1035200008BD0CDF813A00100C4AF0B5146E556EE0
:10353000576F166F6246FFF7EEFF084A146655662E
:1035400057671667F0BD18B4034B9B68FC460193A0
:1035500008BD08DF2539001068070020000000D0F2
:10356000FFB550404240504059404B40594000E068
:10357000FFB5154F4C00640D03D0BC4204D10C03C1
:1035800014D80020090D09055C00640D03D0BC426D
:1035900004D11C030AD800221B0D1B0501264B4039
:1035A00009D44B4003D58B4200D18242FFBD9942E2
:1035B000FCD19042FFBD0B43DB1803431343F5D00E
:1035C000C9434918FFBD0000FF07000000B5FFF721
:1035D000CFFF804100BDC04600B5FFF7C9FF01D94C
:1035E000002000BD012000BD00B5FFF7B9FF01D9E3
:1035F000002000BD012000BD00B5FFF7B1FF8041F4
:1036000000BD012040054A00121804D85A001218C3
:1036100001D800207047012070470020704700004B
:103620000021002805D17047C1174840401AFAD040
:10363000C90713B5064B1B6898470CBC441CA24035
:103640001005120B0349091B09051943114310BD4D
:10365000680800201F04000010B54C00620D802394
:10366000D218DB00D21A5B057E2A10DD9E3A13DAEF
:10367000CC170903490819435242D1406400013470
:103680001532202A05DAD0400843604310BD0020DF
:1036900010BD0846604310BDC80FC018013810BDEA
:1036A00018B4044B5B6AFC46019308BD24DF313C2F
:1036B000001000006807002070B513231C78012C4F
:1036C00012D0012C12DC214B214A93642148FFF7D0
:1036D0007BFC214B186070BD1C491D4A980081502D
:1036E00001331F2BF8D9ECE70023FAE71B48FFF75B
:1036F00073FC05001A48FFF76FFC023803789B0043
:103700007F2B09DD12488022290000F0AFFB022C3C
:1037100008D0022CDADCD6E7124B134A13483221C8
:10372000FEF7B8FA124B1A88B5231B029A4209D148
:10373000104B1A88104B9A4204D1104B1A88104B28
:103740009A42E6D00020FEF73DFBC04685370010C8
:10375000680700204C330000680800205344000034
:1037600053460000AC7000108881001000710010FA
:1037700054380000D8380000494600009C3800004A
:103780005946000007B56046002800D100BE0188F8
:103790000A0A0230DF2AFAD1C9B2820804D30288A9
:1037A00040880004104300E00068024A5050039033
:1037B00007BD0000680700200FB403BC0CBCF0B5C7
:1037C0000124E407634000E0F0B50C0DCF0F661E46
:1037D0003605891B640503D3C943404200D3013138
:1037E000640D03D0661CF60A07D0E41B00207F009E
:1037F000791C89078912803C24031D0DDF0F6E1E82
:1038000036059B1B6D0503D3DB43524200D30133C6
:103810006D0D03D06E1CF60A07D0ED1B00227F0051
:103820007B1C9B079B12803D2D032F1B661B58D4CE
:10383000A446202E46DA20371400BC401D00BD40AF
:10384000F24033412A4380185941CB0F05D0C94378
:10385000C043002264425041514162464D0D28D17F
:103860000D0D07D100281FD0241940414941013ACC
:103870000D0DF9D0640006D3013000D30131002CC6
:1038800001D140084000013A0BD4941CE40A04D151
:1038900012051144DB071944F0BDD907204B194329
:1038A00000E0D9070020F0BD0029DDD1002CDBD1DC
:1038B000F0BD0132C6074008CD0728434908002E55
:1038C000E1D0D9E73C2E29DA203E40371400BC4035
:1038D00000D00124F24014431A00BB401C43D3170C
:1038E000ACE7AC46202F08DA20360400B4400D00C7
:1038F000B540F84039412843A5E73C2F0CDA203F7A
:1039000040360400B44000D00124F84004430800CD
:10391000B1400C43C117EAE710001900002494E7F6
:103920000000F07FF0B50C0D661E3605891BE60A17
:103930006405640D02D0651CED0A04D0002001214D
:103940000905803C2403A4461C0D671E3F05DB1BB4
:10395000E70A6405640D02D0651CED0A04D000225C
:1039600001231B05803C24037740644497B484B250
:1039700096B27443070C7E43150C6F4380B26843C4
:10398000361802D3012000043F183004350C00190A
:103990007D41844688B29AB250430C0C62431F0C9E
:1039A0007C438EB27E43921902D301263604A419B9
:1039B0001604170C3618674101BC81B29AB2514304
:1039C000040C62431B0C5C4380B25843121802D3B0
:1039D0000120000424181004130C401863412D1812
:1039E0005E410020474106BC88B293B258430C0C9C
:1039F0006343120C544389B251435B1802D3012133
:103A00000904641819041A0C091862416D1856410A
:103A10000020474118BCF902720D1143F0026A0DF3
:103A20001043ED020A0D03D16D1940414941013B9C
:103A3000124E9B1B7600B3420ED26D0007D30130AD
:103A4000002671416646354301D1400840001B0500
:103A5000C918E4072144F0BD0BDA013306D1013067
:103A600004D101314F0D01D04908F2E7E1070020F0
:103A7000F0BD013631050020EBE70000FF03000038
:103A8000F0B51C0D671E3F05DB1BE70A6405640DDE
:103A900002D0661CF60A04D0002201231B05803CDC
:103AA0002403D0252D060026F6432E661E096E66D9
:103AB000CE0FF619B44649004F0D02D07E1CF60A0F
:103AC00003D000200021403F3F033E1BB600B4441A
:103AD000013F7F05C91B49082E6F013676089C02FD
:103AE000950D25437543ED137543AD1301356D10E9
:103AF000F603761B0CB4CC02450D2C43A2B2B3B234
:103B00005A43270C7B43350C6F43A4B26C431B19FB
:103B100002D3012424043F191C041D0CA4187D4168
:103B200024196D41009A91B2ACB26143170C7C43E9
:103B30002B0C5F4392B25A43A41802D30122120401
:103B4000BF182204230C52187B41019C6C431B19A3
:103B5000520ED9010A434401A01A81B2B2B25143B4
:103B600003145A43360C734387B27743D617D219DE
:103B700000277E4136049B191704160C7F185E41FE
:103B80007316ED18F301002680337541A90F06D195
:103B90006400690AE8055B0A184309D22FE0042291
:103BA000944480337541A90AA8059B0A184326D37B
:103BB000404149412404009A019B0D005543641B78
:103BC0004343E41A95B286B27543170C7E43030C47
:103BD0005F4392B25A43B61802D301221204BF18AF
:103BE0003204330C52197B4152429C41002C02D4C6
:103BF0000022013051414008CA071043490802B071
:103C00006246D7079210084BD218084B9A4203D24B
:103C100012058918C919F0BD0020002A01DC3900FD
:103C2000F0BD01331905F5E7FD030000FE070000B4
:103C3000002200B5203200F004F8080000BD0000AA
:103C400000220B150AD410B5944600F031F8141474
:103C5000013400DA0021CB17144C2047002000214A
:103C600070476244343A0CD40C2A07DA04009140BD
:103C7000904052422032D440214310BDD843D94312
:103C800010BD203207D40C469440524220321141DC
:103C9000D040204310BD0800C917203203D452423F
:103CA0002032104110BD1800190010BD633C0010F7
:103CB0000A0DCC0F531E1B05C91A520503D3C94365
:103CC000404200D30131520D03D0531CDB0A07D010
:103CD000121B00206400611C89078912803A1203BC
:103CE000014BD21A70470000FF03000051434343C9
:103CF000C9188C46110C83B24B4310B4040C6143B9
:103D000092B280B2504362431C041B0C001910BCD9
:103D100059411304120CC01851416144704700000E
:103D200070B513231E782A48FFF756F90500012EB7
:103D300011D0012E09DDAB1E1B789B007F2B40DDCF
:103D400024488022290000F091F82348FFF73CF92D
:103D5000224B186070BD1F485422290000F086F8DD
:103D60001F4B1A881F4B9A421CD1A7239B011A880C
:103D70001D4B9A4216D11D4B1A881D4B9A4211D1E8
:103D80001C4B1A8894239B019A420BD11A4B1A8818
:103D90001A4B9A4206D11A4B1A681A4B9A4201D111
:103DA000152307E01848FEF70DF8184C094A99004A
:103DB0008C5001331F2BF8D9144B064A1362D36180
:103DC000B7E7134B134A14484221FDF763FFC0467F
:103DD000534600006C0800204C33000068080020A7
:103DE000EE290000C40F0000C20D0000962B000059
:103DF000C0B50000182B0000CC2A000010B5000050
:103E0000FC2C000051ED8764BC6F00101D3E0010BB
:103E1000647100109C8100109871001007B5604615
:103E2000002800D100BE01880A0A0230DF2AFAD138
:103E3000C9B2820804D3028840880004104300E01D
:103E40000068024A5050039007BD00006C08002033
:103E500001480421014B1847C0020020E92F00103F
:103E6000014B1B6818470000C0020020014B5B6833
:103E700018470000C002002010B503000800110020
:103E80001B68984710BD0000F8B507000D0016002C
:103E9000437D002B02D0002400200CE003681100B9
:103EA000280098472DE03B7D10E03B681548022133
:103EB0009847601C0134B44214DA002CF3DD2B194E
:103EC000013B1B780D3B5A425341DBB22A5D0A2A63
:103ED000F0D1002BEED1A042E7DA3B68211A281876
:103EE0009847E2E7B04203DA3B68311A281898474E
:103EF000002E06DDAD19013D2B780D3B5A42534192
:103F00003B75F8BDD481001070B505000368002B27
:103F100016D00C4B1C6805E0290004C92000FFF7EF
:103F2000B3FF2469002C09D02368002BF9D0064B7D
:103F30001B68002BF0D0A342F3D1EDE700232B60E8
:103F400070BDC046980400209C04002070B5050098
:103F50000C000B68802B05D023685A1C2260E418E3
:103F6000257170BD0800FFF7CFFFF5E710B5002BF6
:103F700002DB0260436010BD024B034A03483F214D
:103F8000FDF788FE486A0010D8810010646A0010AE
:103F900010B582B00400FDF763F902000B0068461B
:103FA000FFF7E4FF009A019B22606360200002B0EB
:103FB00010BD000070B582B0060014001D00FA228A
:103FC0009200002306980021FFF790FE02000B00EC
:103FD00012196B41002B09DB6846FFF7C7FF009AF7
:103FE000019B32607360300002B070BD012252420A
:103FF000004BF1E7FFFFFF7F30B585B004000D00F7
:1040000002A8FFF7C5FF029A039B00952000FFF767
:10401000D1FF200005B030BD00B583B0FA21890082
:104020006846FFF7E9FF009A019B024802F0BCFBDB
:1040300003B000BDF402002010B5024802F09CFB62
:1040400010BDC046F4020020F0B5CE46474680B50C
:1040500083B006000D0090461C00FFF7DDFF81468F
:104060006B1C05D0002C08D0194F1A4B1C6807E0B8
:10407000300002F051FB0500F4E7174FF5E7246923
:10408000002C17D02368002BF9D0144B1B68002B91
:1040900001D0A342F3D12A0031002000B8474346A3
:1040A000002BECD06B46D91D0A230B700122200097
:1040B000B847E4E74B46002B07D16B1E9D41E8B2A1
:1040C00003B0C0BCB946B046F0BDFFF7B5FFF4E79A
:1040D000793E001098040020893E00109C040020C6
:1040E000094A01E010331A001368002B08D08342FC
:1040F000F8D1002907D1036913600023036102E0AE
:10410000002900D0106070479804002010B5064BBD
:104110001C6801E098472469002C03D06368002BD9
:10412000F8D1F8E710BDC0469804002070B505002E
:1041300002F0F2FA04000023012201002800FFF738
:1041400083FFFFF7E3FF200070BD000070B5A2B051
:1041500004000E00FFF760FF0500002301930A48EA
:104160003300220001A9FEF717FF040001A8FFF7A2
:10417000CBFEFFF7CBFF002D02D1200022B070BD97
:10418000FFF75AFFF9E7C0464D3F00100FB400B5E6
:1041900083B004A901C90191FFF7D8FF03B008BC9F
:1041A00004B0184710B500F0FFF8012010BD000062
:1041B00010B582B00C00144BC3185A425341134A35
:1041C0005B009B5E8B4204D06B46DA1D14700021AD
:1041D00015E06B46DA1D0D23137000210029F3D181
:1041E00083699B06FCD41378036001310132F5E743
:1041F00083699B06FCD413780360013101320029E6
:10420000F6D002B010BDC0460080FCBF800900207F
:1042100082B000226B46D91D06E08369DB06FCD420
:1042200003680B7001320131002AF6D06B46D87951
:1042300002B0704770B506000D00002405E0315D46
:10424000034B1868FFF7B4FF0134AC42F7DB70BDD5
:1042500084090020F8B506000D00002705E07C1C4D
:10426000F719FFF7D5FF38702700AF4204DA0E4A7E
:1042700010688269D206F2D50C4A1268002A0CD066
:10428000094A12685021916310003430526B18397A
:1042900011408022520102431160002F01D03800EA
:1042A000F8BD033FFBE7C046840900202804002036
:1042B00010B5064B1B68002B06D0054A126800217A
:1042C0009163044A1068984710BDC0462804002036
:1042D000840900202C04002070B505000E001C4B42
:1042E0001A681C4BD31859424B4114331C00002848
:1042F0001ED0194B1B68002B04D0174B1D60174BA9
:104300001E6070BD16492000FCF744F90121200011
:10431000FCF730F90E4B1B6850229A6319003431B8
:104320005B6B183A1A4080235B010B431A60E4E789
:10433000094B1B68002BE0D0002393630021200071
:10434000FCF718F906492000FCF74EF9D5E7C046FE
:10435000840900200080FCBF280400202C040020D9
:10436000B142001070B50D001C000D4B1860002A02
:104370000BDA002C0EDA0A4B18682900FDF78EFACA
:1043800008480121FFF7ACFE70BD02211000FBF7C9
:10439000E9FFEEE702212000FBF7E4FFEBE7C04670
:1043A00084090020D002002010B5064B1B78064B74
:1043B0001B78E1210123002249020448FFF7D2FFC4
:1043C00010BDC046308500102C8500100040034011
:1043D000104A53071BD0D11D0723994380239B020A
:1043E0005B1A9B180A000C48026000214160D31838
:1043F000083B072083430948036059601960991AF4
:1044000051601360064B1960064B1960704780239A
:104410009B02E8E788090020780A0220D8040020DF
:10442000080A0220FC09022010B51A4B19001B686B
:104430008342FBD3174A914205D0174A91420FD3CA
:10444000164A91420CD84A688C1884420FD04268B0
:104450008418A34210D00360884200D0086010BDC9
:104460000F4B104AFE211048FF31FDF713FC406846
:1044700012184A600800EAE70C4C2468A34206D0F0
:104480005B68D21842600B681B680360E4E7046055
:10449000E2E7C046780A0220880900208709022046
:1044A0007872001004820010F4720010D80400200A
:1044B000F8B5041E10D0030009330CD808340723C4
:1044C0001A002240234207D001339B1A093AA24224
:1044D0002AD3E41800E0002401F0A0FA484B1B683E
:1044E000002B23D0002C00DA7AE000D17AE0454B93
:1044F0001868A04200D277E0434B1A68434B9A42B7
:1045000017D3434B9A4214D83F495368A3421CD255
:104510001368002B19D03D498B4210D311003C4A3F
:1045200093420CD81A00F0E70024D5E7FFF750FFBC
:10453000D8E7384B384A3948F521FDF7ABFB354B06
:10454000354A3648FB21FDF7A5FB2D4B1B689342EE
:104550004CD00D6808352D4B9D422CD32C4B9D42E1
:1045600029D813680B605368A3422BD31B1B102B55
:1045700007D9161977072CD1736054600B68336024
:104580000E605168401A1F4B1860254B1B689842FB
:1045900001D2234B186080231B060B43536000237A
:1045A0001360204A13680133136001F009FB6B07A5
:1045B0001ED12800F8BD1C4B174A06211748FF31B1
:1045C000FDF768FB194B144A0E211448FF31FDF723
:1045D00061FB174B104A8B2110484900FDF75AFB2D
:1045E0000025E2E70025E0E70025DEE70025DCE71F
:1045F000104B094A58210948FF31FDF74BFBC046D3
:10460000D8040020FC090220780A02208809002032
:1046100087090220507300102C820010F4720010E1
:10462000080A0220140A0220C47300103C7400100F
:1046300070740010A474001070B5002826D0050016
:10464000083D1D4B9D4222D31C4B9D421FD80300A9
:10465000083B5B68002B21DA0200083A1268002A46
:1046600023D1083804005B005B08436001F0D6F9F1
:104670006168134A13685B1813602800FFF7D4FEC3
:10468000104A13680133136001F09AFA70BD0E4BA3
:104690000E4AB5210E484900FDF7FCFA0D4B0B4AB6
:1046A0006C210B48FF31FDF7F5FA0B4B074AB62199
:1046B00007484900FDF7EEFA880900208709022023
:1046C000FC090220180A0220E07400102082001069
:1046D000F472001054750010C8750010084B5B6A26
:1046E000994209D8064A926A824207D2994201D079
:1046F000012002E0002000E0002070470120FCE7DC
:10470000004005407047000000000000000000006D
:104710000B4A13681868203080F30988022080F360
:104720001488BFF36F8F3FBCAE4608BC04BC62B6B2
:104730001847C046C046C046C046C046C046C046F0
:10474000CC04002000000000000000000000000079
:10475000EFF30980164B1A6820381060F0C0444609
:104760004D4656465F46F0C00D221207146E556E38
:10477000566F176F3038F0C008B572B601F0F0FA16
:1047800062B60CBC116808681030F0C8A046A94693
:10479000B246BB4680F309880D2212073038F0C8B4
:1047A0001466556656671767F0C81847C046C04676
:1047B000CC04002010B5FDF71DFB000000B583B050
:1047C00002E0D0231B069B6DD0231B061B6DDB076D
:1047D000F7D4D0231B06FF221A6500230193114B47
:1047E0001A68EFF3108072B61368002BFCD0BFF389
:1047F0005F8F0D4A1168002313600A4A1268BFF3E5
:104800005F8F136080F31088084B186801AA00F0CE
:104810005FFB019B002B03D0054B802252051A60E1
:1048200003B000BDC804002090090220F80902204E
:1048300004ED00E010B5002B02DB0260436010BD08
:10484000024B034A03483F21FDF724FA486A00104F
:104850003C820010646A001010B582B00400FCF7BE
:10486000FFFC02000B006846FFF7E4FF009A019B83
:1048700022606360200002B010BD000030B583B03C
:1048800004000D006846FFF7E7FF009A019B200037
:104890002900801A99410A4A01235B428018594134
:1048A000002907DC02D0002003B030BDFA239B00B2
:1048B0009842F8D3FA2292000023FEF7FFFBF3E7B9
:1048C00018FCFFFF10B5031F802464041C60043B28
:1048D0001960044B01000C390B600300203B1A6087
:1048E000403810BDB547001010B50A4B1B68002BAF
:1048F00008D1094B802252051A60BFF34F8FBFF3D6
:104900006F8F10BD054B064AE42106484900FDF7AC
:10491000C1F9C0466407002004ED00E0F075001006
:10492000A08200101476001072B6044A1368013396
:104930001360BFF34F8FBFF36F8F70478C09022056
:10494000074B1A68002A08D000211960054B1B6824
:10495000BFF35F8F116083F3108862B67047C04663
:10496000640700208809022010B50A4B1B68002B41
:1049700005D0013B074A1360002B07D010BD064B42
:10498000064AF22106484900FDF784F9FFF7D8FFEF
:10499000F4E7C0468C0902207C7600108C8200105F
:1049A00014760010EFF3108072B6704780F3108811
:1049B0007047000010B5FFF7F5FF040001F042F862
:1049C000002803D0034B802252051A602000FFF715
:1049D000EDFF10BD04ED00E010B5094C002323608D
:1049E000084A13600520FDF79DF8FA218900FEF7BB
:1049F0003FFB0138044B18600723236010BDC046FD
:104A000010E000E018E000E014E000E010B5214BF9
:104A10001968FF2212040A431A601968FF2212065D
:104A20000A431A601C490220404201F053FE1B4910
:104A30000120404201F04EFE19490520404201F09C
:104A400049FEFFF7C9FF174B00221A60D0231B064F
:104A50001C68154A1470FF221A6502E0D0231B0659
:104A60009B6DD0231B061B6DDB07F7D40F34FF2192
:104A70002000FBF77DFE0D492000FBF78BFD012197
:104A80002000FBF777FDFFF743FE01F069F9FFF720
:104A900091FEC04620ED00E051470010B5490010DE
:104AA000054700108C090220E8020020BD470010D5
:104AB00010B5094B1B78D02212061068834200D033
:104AC00010BDEFF30583002B02D05B00C018F7E7A1
:104AD00001F08CFBF4E7C046E802002010B582B07C
:104AE0000C0002682B4B9C466244921001239340B9
:104AF0001A021343190A284B1A78D0231B061B6885
:104B00009A4220D040BF0268244B1B689A423BD097
:104B10001A68002AFCD0BFF35F8F214A13680B4349
:104B200013601E4B1B68BFF35F8F00221A600023C7
:104B3000D022120653650268BFF35F8F136084F3BF
:104B4000108802B010BD40BF0368BFF35F8F002222
:104B50001A6084F31088EFF30583DBB2002B04D1D5
:104B6000104B186800F064F9EBE7002301930D4B3C
:104B7000186801AA00F0ACF9019B002BE1D00A4BA8
:104B8000802252051A60DCE7054A13680B43136064
:104B9000CDE7C04600FFFF2FE8020020C804002038
:104BA00090090220F809022004ED00E0F0B583B07E
:104BB00006000F0015001C00EFF30583DBB2002B8D
:104BC00029D12E4B1A78D0231B061B689A4228D174
:104BD0002B4B1B68002B31D128002100FFF74EFE24
:104BE000031E37D03268002A2ED025490A60254A94
:104BF0001760326824498C4662449210012191402A
:104C00000A021143090A214A106800930023012275
:104C100000F07EF825E01E4B1E4A1F481F49FDF795
:104C200039F80368BFF35F8F00221A6081F31088A0
:104C300028002100FCF78EFA040018E0184B154AF2
:104C400015481849FDF726F8174B124A124817491C
:104C5000FDF720F83368BFF35F8F00221A6087F3F7
:104C6000108828002100FFF739FD041E02D0200023
:104C700003B0F0BDFFF738FEF9E7C046E8020020B8
:104C8000640700208809022000FFFF2FF809022096
:104C90009076001054820010147600102904000051
:104CA000F075001033040000F07600103B040000A3
:104CB00010B5FBF7C5FB054B9C4660448000044BD8
:104CC000186000F018F8034B186010BD4000003465
:104CD000C8040020F8090220002A03D1014206D1AD
:104CE000100003E00840884203D0002070470120F4
:104CF000FCE70120FAE710B51C20FFF7D9FB041EE2
:104D000003D0002308C000F0EFF8200010BD000021
:104D1000F0B5C64600B506000D00170098460028FD
:104D20002FD080235B04994232D2002937D001F082
:104D300063FA002802D1069B002B37D100F06EFEEB
:104D40003468424629002000FFF7C6FF002834D00F
:104D5000002F48D02300AB4333600023069300F0BC
:104D60002FFF069B002B08D000283FD001F0B6FA99
:104D7000040083013DD52402240A200080BCB846EB
:104D8000F0BD254B254A44212548FF31FCF782FF21
:104D9000244B224AA22122484900FCF77BFF224BE8
:104DA0001E4A46211E48FF31FCF774FF1F4B1B4A69
:104DB000A4211B484900FCF76DFF069B002BCED0B9
:104DC000002F0DD100214346002B02D08023DB04AD
:104DD00019432943301D069A01F034F80024BEE738
:104DE00080214904EFE700230693B8E7FFF77CFD35
:104DF000BCE7FFF799FD3468424629002000FFF721
:104E00006BFF002804D0002F02D02300AB43336097
:104E1000FFF7AAFDAFE7C04604770010C08200107C
:104E2000107700106077001088770010A0770010CE
:104E3000F8B504000D0000280DD080235B049942D2
:104E40000FD206000C3600F0E9FD206923682B43E1
:104E50002360002718E0174B174A18481849FCF739
:104E600019FF184B144A892114488900FCF712FFD6
:104E700021681940994206D111E0236880218904F4
:104E8000194301F0CFF82800B0420CD04568026801
:104E900013021B0A5101EBD421680B42F3D0D2015B
:104EA000EBD51F43E9E72368BB43236000F088FE8E
:104EB0002068F8BD04770010AC8200101077001055
:104EC00023020000F477001010B5FFF7B1FF10BD0A
:104ED00010B51300034C0A000100200001F0C2FBD2
:104EE00010BDC046C94E00100300083343600122C4
:104EF00052428260C3600361002303607047002355
:104F00000361704730B50D686B1C10D00300083387
:104F10001C005B681A68AA42FAD963684B60996002
:104F20008C606160086103680133036030BD04690F
:104F3000F3E70369416882688A60416851605A6892
:104F4000824206D0002202611A68013A1A6018688B
:104F5000704782685A60F5E710B50400FFF7E4FC7B
:104F6000A36B002B04D10124FFF7FEFC200010BD31
:104F70000024F9E770B504001500866B026C002A66
:104F80000CD10368002B03D000200136A66370BD4E
:104F9000806801F043F90023A360F6E7002D0DD1EE
:104FA0004068FEF763FF6368226C9B186360A26829
:104FB00093421AD3236863602800E6E7C068FEF7CF
:104FC00055FFE368226C51429B1AE36022689342CA
:104FD00002D2A3685B18E360022D01D00020D4E761
:104FE000002E04D0013E0020CFE72800CDE70020AE
:104FF000CBE710B5030008001A6C002A0AD0DC6861
:10500000A418DC6099688C4201D31968D960D9680A
:10501000FEF72CFF10BD000070B582B00190846CCB
:10502000002C0AD0A26BE36B9A420CD2A26B934283
:105030000FD80025280002B070BD194B194A1A4834
:105040001A49FCF727FE1A4B164A17481949FCF76C
:1050500021FE4523E65C76B2002201A92000FFF77D
:1050600089FF0500731C0AD1636A002BE2D020007F
:10507000243000F057FF0028DCD00125DAE700F0EB
:10508000DBFC8642D6D27F2E04D0013676B2452391
:10509000E654CFE7084B034A03480849FCF7FAFDFA
:1050A00018780010148300102C780010440C0000B5
:1050B00078780010450C0000C0780010650C0000E6
:1050C00070B50500FFF730FC4523EC5C64B20AE0E4
:1050D0006B6A002B17D02800243000F023FF002833
:1050E0000ED1013C64B2002C0DDDAB6C002BEFD077
:1050F0002800FFF791FF0028F3D001F071F8F0E7E6
:1051000001F06EF8EDE74523FF22EA54FFF72CFC8F
:10511000FFF70AFC4423EC5C64B201E0013C64B29A
:10512000002C0BDD2B69002B08D02800103000F07C
:10513000F9FE0028F2D001F053F8EFE74423FF22F4
:10514000EA54FFF711FC70BDF8B504000D0000280B
:105150002BD0C36B002B54D0026C0026190C100C02
:10516000002937D181B2002926D1002E49D1FFF77D
:10517000DBFB2268E36B206C010059435118A160EE
:105180000021A1636260013B4343D218E260FF2328
:105190004422A3540132A354002D29D12369002BAA
:1051A0001DD1FFF7E1FB0120F8BD194B194A9921E8
:1051B00019484900FCF76EFD011C181C9BB292B205
:1051C0005A4380B289B24143120C8918090CCCD0E1
:1051D0000126CAE780B20028FAD1101CEEE72000B1
:1051E000103000F09FFE0028DBD0FFF77DFBD8E7F2
:1051F00020001030FFF778FE20002430FFF774FE07
:10520000CFE7064B034A68210348FF31FCF742FD14
:10521000E4780010448300102C780010EC78001023
:1052200070B51D00049C00290BD12460E06321644B
:1052300001212000FFF788FF5023E5540023A364D9
:1052400070BD2260F2E70000F0B583B004000F00EB
:105250001600002831D00021030C3A0C002B27D176
:1052600093B2002B16D1002927D1380060430300E8
:10527000553322D85430FFF71BF9051E07D0020022
:1052800054320090330039002000FFF7C9FF280096
:1052900003B0F0BD131C201CA5B2BAB26A4380B2A1
:1052A0009BB24343120C9B181B0CDCD00121DAE7A4
:1052B00092B2002AFAD1381CEEE7034B034A0448A5
:1052C0000449FCF7E7FCC046107900103083001059
:1052D0002C78001019020000F0B5D646474680B57C
:1052E00083B004000F0001921D00002819D000298E
:1052F0001DD0022D02D1E36B012B21D1FFF752FB10
:105300008046A26BE36B9A4220D3022D1ED000246C
:105310004046FFF74BFB200003B0C0BCBA46B04686
:10532000F0BD334B334A34483449FCF7B3FC036CCB
:10533000002BDED0324B2F4A2F483249FCF7AAFC13
:10534000314B2C4A2C483149FCF7A4FC4523E65C40
:1053500076B2A36B9A462A0039002000FFF70AFEB6
:10536000731C25D1A36C002B10D0022D02D1534603
:10537000002B30D12000FFF74FFE00282DD0019ADE
:10538000002A2CD0012313600124C1E7636A002B9B
:1053900001D10124BCE72000243000F0C3FD002827
:1053A0001FD0019A002A1ED0012313600124AFE709
:1053B00000F042FB864218D27F2E05D0013676B22D
:1053C0004523E6540124A3E7114B0A4A9D210A48CC
:1053D000C900FCF75FFC01249AE7012498E7012447
:1053E00096E7012494E7012492E7012490E7C04660
:1053F000E4780010F88200102C7800105D040000A2
:105400001C7900105E040000747900105F04000035
:10541000C0780010F0B585B004000E00019200289D
:105420000ED0002913D000F0E7FE051E18D1019B15
:10543000002B4FD0434B444A44484549FCF72AFCD3
:10544000444B414AB5214148C900FCF723FC036C99
:10545000002BE8D0404B3C4A3C484049FCF71AFC42
:10546000002537E031002000FFF7C3FD013FA763AF
:105470002369002B04D1FFF777FA012005B0F0BDB6
:105480002000103000F04EFD0028F4D0FFF72CFA79
:10549000F1E7FFF769FA0020F0E702A800F03CFE10
:1054A000013521E044230022E25428E04523002274
:1054B000E25429E02000FFF703FE00F081FB09E041
:1054C0002000FFF7FDFD00F07BFB2000FFF744FD0F
:1054D000002835D1FFF728FAA76B002FC2D1019B16
:1054E000002BD6D0002DD8D0FFF73EFA00F096FA68
:1054F000FFF71AFA4423E35C5BB20133D2D04523B1
:10550000E35C5BB20133D1D0FFF72EFA01A902A808
:1055100000F00EFE0028D3D12000FFF71DFD00286B
:10552000C8D001992000243000F06EFC2000FFF765
:10553000C7FD00F045FB0028CCD1FFF7D5F9C9E73E
:1055400000209BE7A0770010E88200102C78001064
:10555000B1050000C4790010D0790010AC0500003E
:1055600070B5002804D0002922D00024002209E0D0
:10557000104B114A11481249FCF78CFB114BEC18E7
:1055800014E00132072A0FD80E4BD5005B195B6877
:105590008342F3D0002CF4D10A4BD500EB58002BFA
:1055A000EFD1084BEC18ECE7002C01D021606060D3
:1055B00070BDC0462C7A0010D48200102C780010E8
:1055C000390B0000340A022070B504000D001600EB
:1055D000FFF7AAF94423E35C5BB201330DD0452306
:1055E000E35C5BB201330CD0FFF7BEF9A36B002B79
:1055F0000BD02000FFF764FD70BD44230022E2546D
:10560000EDE745230022E254EEE72000243032008B
:10561000290000F057FCECE7084B1B681B68002BC7
:1056200004D1074B012252421A607047034B1B689A
:10563000DB681A68024B1A60F7E7C046D404002002
:105640000C0A022010B50400006BFEF7F5FF2000E5
:10565000FEF7F2FF10BD0000F0B5DE4657464646A5
:10566000C0B582460F0014009B46089E0A9D286B19
:105670009200A521FEF7F4FB2B6B1F4A944664446D
:10568000A4001B19072293439846002F0DD0002435
:105690000F2C07D83A5D2B1934331A70002A01D029
:1056A0000134F5E743230022EA541F2E1CD8EE6292
:1056B000EE64281DFFF723FC28001830FFF71FFCBD
:1056C0002D6120239B1BAB616D625A4651464046BB
:1056D000FFF7F8F82860099B002B00D01D60E0BCA4
:1056E000BB46B246A846F0BD044B054AC521054855
:1056F000C900FCF7CFFAC046FFFFFF3F887A0010D1
:10570000788400103C7A001070B5002407E0A300F4
:105710001B1998000E4BC018FFF7E6FB01341F2C35
:10572000F5D90C4D2800FFF7DFFB0B4C2000FFF7ED
:10573000DBFB0A48FFF7D8FB0948FFF7D5FB094810
:10574000FFF7D2FB084B1D60084B1C6070BDC046C4
:10575000E4040020D0090220E4090220200A0220EB
:10576000940A0220800A0220D4040020DC040020D5
:1057700010B50400FFF7D8F8284A13680133136006
:10578000274B1B68002B0CD0264B1B68002B0DD120
:10579000234B1B68DA6AE36A9A4207D8204B1C60E5
:1057A00004E01F4B1C601368012B31D01E4A1368A4
:1057B000013313606364E16A1C4B1B68994201D991
:1057C0001A4B19601A4A8B005B189B00D3185B6850
:1057D000A3609868E060211D41609960E06A8300E1
:1057E00019188900891861611918890089580131CF
:1057F0001B189B009950FFF7B7F80A4B1B68002B4A
:1058000005D0074B1B68DA6AE36A9A4203D310BDDE
:10581000FFF77AFFCAE7FFF767F8F8E79409022075
:10582000CC040020740A0220A0090220A40902204E
:10583000E404002010B514E0FFF776F80B4BDB68AA
:10584000DC68201DFFF775FB094A1368013B1360F4
:10585000084A1368013B1360FFF786F82000FFF742
:10586000F1FE044B1B68002BE6D110BD940A022008
:10587000940902209809022010B5FFF7DBFF034BC3
:105880001B68012BF9D9FFF72FF8F6E7E404002095
:1058900070B504000D001F4B1E681F4B19686D2268
:1058A0000020885418680430FFF743FB631C0DD0B8
:1058B0003419194B1B685C60A6421DD9174B186838
:1058C000154B19680431FFF71DFB70BD002DEFD09B
:1058D000134A5168104B1868816018688C68C4605E
:1058E0001868043060601868043088601B685A616A
:1058F000136801331360E8E70A4B1868064B196810
:105900000431FFF7FFFA084B1B68A342DDD9064BB1
:105910001C60DAE7A80A0220CC040020DC04002086
:10592000800A0220D40400200C0A0220F0B587B0BF
:105930000490059116001F009000FEF7B9FD041EAB
:1059400021D07020FEF7B4FD051E16D07022002174
:10595000FEF786FA2C630023039302950D9B0193B7
:105960000C9B00933B00320005990498FFF774FEEE
:105970002800FFF7FDFE012007E02000FEF75CFE97
:105980000120404201E00120404207B0F0BD00008C
:1059900000B583B0802205490548064B01930023DA
:1059A00000935200FFF7C2FF03B000BD987A0010C9
:1059B00079580010000A022010B5FFF7E9FF01280E
:1059C00004D0013014D00D4B1B6810BD00F01EFE3A
:1059D0000128F6D172B60A4B012252421A60094BD5
:1059E00002321A60084B00221A60FFF70FF8EAE74C
:1059F000064B074A07480849FCF74CF99084001009
:105A00000C0A0220740A0220A80A0220A07A0010C0
:105A1000588400103C7A0010030D0000024A1368FD
:105A2000013313607047C0469C090220014B18687F
:105A30007047C046A80A0220014B18687047C0464C
:105A400094090220F8B54F4B1B68002B00D093E05F
:105A50004D4B1E6801361E60002E10D14B4B1B684B
:105A60001B68002B21D1494A1168494B1868106006
:105A70001960484A136801331360FFF7CDFD464BA8
:105A80001B68B34217D90020444B1B68D96A444AAB
:105A90008B005B1899008B58012B00D90120414BDA
:105AA0001B68002B6DD001206BE03F4B3F4A404804
:105AB0004049FCF7EFF8002033E0374B0122524217
:105AC0001A60E1E7344B1A60DEE7D96851603EE0C6
:105AD00000219962116801391160DA6A3649096852
